{
  "contractName": "Casino",
  "abi": [
    {
      "constant": true,
      "inputs": [
        {
          "name": "",
          "type": "address"
        }
      ],
      "name": "entreprises",
      "outputs": [
        {
          "name": "exist",
          "type": "bool"
        },
        {
          "name": "addr",
          "type": "address"
        },
        {
          "name": "balance",
          "type": "uint256"
        },
        {
          "name": "total",
          "type": "uint256"
        }
      ],
      "payable": false,
      "stateMutability": "view",
      "type": "function"
    },
    {
      "constant": true,
      "inputs": [
        {
          "name": "",
          "type": "address"
        }
      ],
      "name": "projets",
      "outputs": [
        {
          "name": "addr",
          "type": "address"
        },
        {
          "name": "exist",
          "type": "bool"
        },
        {
          "name": "balance",
          "type": "uint256"
        },
        {
          "name": "total",
          "type": "uint256"
        }
      ],
      "payable": false,
      "stateMutability": "view",
      "type": "function"
    },
    {
      "constant": true,
      "inputs": [],
      "name": "owner",
      "outputs": [
        {
          "name": "",
          "type": "address"
        }
      ],
      "payable": false,
      "stateMutability": "view",
      "type": "function"
    },
    {
      "constant": true,
      "inputs": [
        {
          "name": "",
          "type": "address"
        }
      ],
      "name": "users",
      "outputs": [
        {
          "name": "addr",
          "type": "address"
        },
        {
          "name": "invest",
          "type": "uint256"
        },
        {
          "name": "discount",
          "type": "uint256"
        }
      ],
      "payable": false,
      "stateMutability": "view",
      "type": "function"
    },
    {
      "inputs": [],
      "payable": false,
      "stateMutability": "nonpayable",
      "type": "constructor"
    },
    {
      "anonymous": false,
      "inputs": [
        {
          "indexed": false,
          "name": "from",
          "type": "address"
        },
        {
          "indexed": false,
          "name": "value",
          "type": "uint256"
        }
      ],
      "name": "Discount",
      "type": "event"
    },
    {
      "constant": false,
      "inputs": [
        {
          "name": "_entreprise",
          "type": "address"
        },
        {
          "name": "_amount",
          "type": "uint256"
        }
      ],
      "name": "fundEntreprise",
      "outputs": [],
      "payable": false,
      "stateMutability": "nonpayable",
      "type": "function"
    },
    {
      "constant": false,
      "inputs": [
        {
          "name": "_projet",
          "type": "address"
        },
        {
          "name": "_amount",
          "type": "uint256"
        }
      ],
      "name": "fundProjet",
      "outputs": [],
      "payable": false,
      "stateMutability": "nonpayable",
      "type": "function"
    },
    {
      "constant": false,
      "inputs": [
        {
          "name": "_entreprise",
          "type": "address"
        }
      ],
      "name": "createEntreprise",
      "outputs": [],
      "payable": false,
      "stateMutability": "nonpayable",
      "type": "function"
    },
    {
      "constant": false,
      "inputs": [
        {
          "name": "_projet",
          "type": "address"
        }
      ],
      "name": "createProjet",
      "outputs": [],
      "payable": false,
      "stateMutability": "nonpayable",
      "type": "function"
    },
    {
      "constant": false,
      "inputs": [
        {
          "name": "_user",
          "type": "address"
        },
        {
          "name": "_amount",
          "type": "uint256"
        }
      ],
      "name": "fundUser",
      "outputs": [],
      "payable": false,
      "stateMutability": "nonpayable",
      "type": "function"
    },
    {
      "constant": false,
      "inputs": [
        {
          "name": "_entreprise",
          "type": "address"
        },
        {
          "name": "_amount",
          "type": "uint256"
        }
      ],
      "name": "burnCoinEntreprise",
      "outputs": [],
      "payable": false,
      "stateMutability": "nonpayable",
      "type": "function"
    },
    {
      "constant": false,
      "inputs": [
        {
          "name": "_projet",
          "type": "address"
        },
        {
          "name": "_amount",
          "type": "uint256"
        }
      ],
      "name": "burnCoinProjet",
      "outputs": [],
      "payable": false,
      "stateMutability": "nonpayable",
      "type": "function"
    },
    {
      "constant": false,
      "inputs": [
        {
          "name": "_amount",
          "type": "uint256"
        }
      ],
      "name": "burnCoinUser",
      "outputs": [],
      "payable": false,
      "stateMutability": "nonpayable",
      "type": "function"
    },
    {
      "constant": true,
      "inputs": [],
      "name": "Owner",
      "outputs": [
        {
          "name": "",
          "type": "address"
        }
      ],
      "payable": false,
      "stateMutability": "view",
      "type": "function"
    }
  ],
  "bytecode": "0x6060604052341561000f57600080fd5b336000806101000a81548173ffffffffffffffffffffffffffffffffffffffff021916908373ffffffffffffffffffffffffffffffffffffffff16021790555060018081905550611190806100656000396000f3006060604052600436106100c5576000357c0100000000000000000000000000000000000000000000000000000000900463ffffffff16806318538aea146100ca5780631e322f68146101035780633fd70c5d146101265780634c37d125146101685780634e23a144146101aa57806359447258146101ec57806365eb30351461022e5780638021a253146102c05780638da5cb5b14610352578063a87430ba146103a7578063b4a99a4e1461042e578063e4f4ff6614610483578063f1401b72146104c5575b600080fd5b34156100d557600080fd5b610101600480803573ffffffffffffffffffffffffffffffffffffffff169060200190919050506104fe565b005b341561010e57600080fd5b61012460048080359060200190919050506106a3565b005b341561013157600080fd5b610166600480803573ffffffffffffffffffffffffffffffffffffffff169060200190919080359060200190919050506107b2565b005b341561017357600080fd5b6101a8600480803573ffffffffffffffffffffffffffffffffffffffff16906020019091908035906020019091905050610902565b005b34156101b557600080fd5b6101ea600480803573ffffffffffffffffffffffffffffffffffffffff16906020019091908035906020019091905050610a5f565b005b34156101f757600080fd5b61022c600480803573ffffffffffffffffffffffffffffffffffffffff16906020019091908035906020019091905050610b0e565b005b341561023957600080fd5b610265600480803573ffffffffffffffffffffffffffffffffffffffff16906020019091905050610c5e565b60405180851515151581526020018473ffffffffffffffffffffffffffffffffffffffff1673ffffffffffffffffffffffffffffffffffffffff16815260200183815260200182815260200194505050505060405180910390f35b34156102cb57600080fd5b6102f7600480803573ffffffffffffffffffffffffffffffffffffffff16906020019091905050610cbb565b604051808573ffffffffffffffffffffffffffffffffffffffff1673ffffffffffffffffffffffffffffffffffffffff1681526020018415151515815260200183815260200182815260200194505050505060405180910390f35b341561035d57600080fd5b610365610d18565b604051808273ffffffffffffffffffffffffffffffffffffffff1673ffffffffffffffffffffffffffffffffffffffff16815260200191505060405180910390f35b34156103b257600080fd5b6103de600480803573ffffffffffffffffffffffffffffffffffffffff16906020019091905050610d3d565b604051808473ffffffffffffffffffffffffffffffffffffffff1673ffffffffffffffffffffffffffffffffffffffff168152602001838152602001828152602001935050505060405180910390f35b341561043957600080fd5b610441610d87565b604051808273ffffffffffffffffffffffffffffffffffffffff1673ffffffffffffffffffffffffffffffffffffffff16815260200191505060405180910390f35b341561048e57600080fd5b6104c3600480803573ffffffffffffffffffffffffffffffffffffffff16906020019091908035906020019091905050610db0565b005b34156104d057600080fd5b6104fc600480803573ffffffffffffffffffffffffffffffffffffffff16906020019091905050610f0d565b005b6000809054906101000a900473ffffffffffffffffffffffffffffffffffffffff1673ffffffffffffffffffffffffffffffffffffffff163373ffffffffffffffffffffffffffffffffffffffff1614151561055957600080fd5b600360008273ffffffffffffffffffffffffffffffffffffffff1673ffffffffffffffffffffffffffffffffffffffff16815260200190815260200160002060000160009054906101000a900460ff161515156105b557600080fd5b6001600360008373ffffffffffffffffffffffffffffffffffffffff1673ffffffffffffffffffffffffffffffffffffffff16815260200190815260200160002060000160006101000a81548160ff0219169083151502179055506000600360008373ffffffffffffffffffffffffffffffffffffffff1673ffffffffffffffffffffffffffffffffffffffff168152602001908152602001600020600101819055506000600360008373ffffffffffffffffffffffffffffffffffffffff1673ffffffffffffffffffffffffffffffffffffffff1681526020019081526020016000206002018190555050565b80600260003373ffffffffffffffffffffffffffffffffffffffff1673ffffffffffffffffffffffffffffffffffffffff16815260200190815260200160002060020154101515156106f457600080fd5b80600260003373ffffffffffffffffffffffffffffffffffffffff1673ffffffffffffffffffffffffffffffffffffffff168152602001908152602001600020600201600082825403925050819055507f53d779e88d586338eb6626eb9f9064c25dfe1b3d57f2ab0c07db8a181f4a24e63382604051808373ffffffffffffffffffffffffffffffffffffffff1673ffffffffffffffffffffffffffffffffffffffff1681526020018281526020019250505060405180910390a150565b6000809054906101000a900473ffffffffffffffffffffffffffffffffffffffff1673ffffffffffffffffffffffffffffffffffffffff163373ffffffffffffffffffffffffffffffffffffffff1614151561080d57600080fd5b80600460008473ffffffffffffffffffffffffffffffffffffffff1673ffffffffffffffffffffffffffffffffffffffff168152602001908152602001600020600101541015151561085e57600080fd5b80600460008473ffffffffffffffffffffffffffffffffffffffff1673ffffffffffffffffffffffffffffffffffffffff1681526020019081526020016000206001016000828254039250508190555080600460008473ffffffffffffffffffffffffffffffffffffffff1673ffffffffffffffffffffffffffffffffffffffff168152602001908152602001600020600201600082825401925050819055505050565b61090b826110b2565b151561091657600080fd5b80600260003373ffffffffffffffffffffffffffffffffffffffff1673ffffffffffffffffffffffffffffffffffffffff168152602001908152602001600020600101541015151561096757600080fd5b80600460008473ffffffffffffffffffffffffffffffffffffffff1673ffffffffffffffffffffffffffffffffffffffff1681526020019081526020016000206001016000828254019250508190555080600260003373ffffffffffffffffffffffffffffffffffffffff1673ffffffffffffffffffffffffffffffffffffffff168152602001908152602001600020600101600082825403925050819055506001548102600260003373ffffffffffffffffffffffffffffffffffffffff1673ffffffffffffffffffffffffffffffffffffffff168152602001908152602001600020600201600082825401925050819055505050565b6000809054906101000a900473ffffffffffffffffffffffffffffffffffffffff1673ffffffffffffffffffffffffffffffffffffffff163373ffffffffffffffffffffffffffffffffffffffff16141515610aba57600080fd5b80600260008473ffffffffffffffffffffffffffffffffffffffff1673ffffffffffffffffffffffffffffffffffffffff168152602001908152602001600020600101600082825401925050819055505050565b6000809054906101000a900473ffffffffffffffffffffffffffffffffffffffff1673ffffffffffffffffffffffffffffffffffffffff163373ffffffffffffffffffffffffffffffffffffffff16141515610b6957600080fd5b80600360008473ffffffffffffffffffffffffffffffffffffffff1673ffffffffffffffffffffffffffffffffffffffff1681526020019081526020016000206001015410151515610bba57600080fd5b80600360008473ffffffffffffffffffffffffffffffffffffffff1673ffffffffffffffffffffffffffffffffffffffff1681526020019081526020016000206001016000828254039250508190555080600360008473ffffffffffffffffffffffffffffffffffffffff1673ffffffffffffffffffffffffffffffffffffffff168152602001908152602001600020600201600082825401925050819055505050565b60036020528060005260406000206000915090508060000160009054906101000a900460ff16908060000160019054906101000a900473ffffffffffffffffffffffffffffffffffffffff16908060010154908060020154905084565b60046020528060005260406000206000915090508060000160009054906101000a900473ffffffffffffffffffffffffffffffffffffffff16908060000160149054906101000a900460ff16908060010154908060020154905084565b6000809054906101000a900473ffffffffffffffffffffffffffffffffffffffff1681565b60026020528060005260406000206000915090508060000160009054906101000a900473ffffffffffffffffffffffffffffffffffffffff16908060010154908060020154905083565b60008060009054906101000a900473ffffffffffffffffffffffffffffffffffffffff16905090565b610db98261110b565b1515610dc457600080fd5b80600260003373ffffffffffffffffffffffffffffffffffffffff1673ffffffffffffffffffffffffffffffffffffffff1681526020019081526020016000206001015410151515610e1557600080fd5b80600360008473ffffffffffffffffffffffffffffffffffffffff1673ffffffffffffffffffffffffffffffffffffffff1681526020019081526020016000206001016000828254019250508190555080600260003373ffffffffffffffffffffffffffffffffffffffff1673ffffffffffffffffffffffffffffffffffffffff168152602001908152602001600020600101600082825403925050819055506001548102600260003373ffffffffffffffffffffffffffffffffffffffff1673ffffffffffffffffffffffffffffffffffffffff168152602001908152602001600020600201600082825401925050819055505050565b6000809054906101000a900473ffffffffffffffffffffffffffffffffffffffff1673ffffffffffffffffffffffffffffffffffffffff163373ffffffffffffffffffffffffffffffffffffffff16141515610f6857600080fd5b600460008273ffffffffffffffffffffffffffffffffffffffff1673ffffffffffffffffffffffffffffffffffffffff16815260200190815260200160002060000160149054906101000a900460ff16151515610fc457600080fd5b6001600460008373ffffffffffffffffffffffffffffffffffffffff1673ffffffffffffffffffffffffffffffffffffffff16815260200190815260200160002060000160146101000a81548160ff0219169083151502179055506000600460008373ffffffffffffffffffffffffffffffffffffffff1673ffffffffffffffffffffffffffffffffffffffff168152602001908152602001600020600101819055506000600460008373ffffffffffffffffffffffffffffffffffffffff1673ffffffffffffffffffffffffffffffffffffffff1681526020019081526020016000206002018190555050565b6000600460008373ffffffffffffffffffffffffffffffffffffffff1673ffffffffffffffffffffffffffffffffffffffff16815260200190815260200160002060000160149054906101000a900460ff169050919050565b6000600360008373ffffffffffffffffffffffffffffffffffffffff1673ffffffffffffffffffffffffffffffffffffffff16815260200190815260200160002060000160009054906101000a900460ff1690509190505600a165627a7a72305820985f3cc5967147729f6abd5acb267c6d37d418e286424133e80fe2e19b7b96f30029",
  "source": "pragma solidity ^0.4.8;\n\ncontract Casino {\n    address public owner;\n    uint ratio;\n\n    struct User {\n        address addr;\n        uint invest;\n        uint discount;\n    }\n\n    struct Entreprise {\n        bool exist;\n        address addr;\n        uint balance;\n        uint total;\n    }\n\n    struct Projet {\n        address addr;\n        bool exist;\n        uint balance;\n        uint total;\n    }\n\n    mapping(address=>User) public users;\n    mapping(address=>Entreprise) public entreprises;\n    mapping(address=>Projet) public projets;\n\n    event Discount(address from, uint value);\n\n    modifier onlyOwner() {\n        require(msg.sender == owner);\n        _;\n    }\n\n    function _isValideEntreprise(address entreprise) internal view returns (bool) {\n        return(entreprises[entreprise].exist);\n    }\n\n    function _isValideProjet(address projet) internal view returns (bool) {\n        return(projets[projet].exist);\n    }\n\n    function Casino() public {\n        owner = msg.sender;\n        ratio = 1;\n    }\n\n    function fundEntreprise(address _entreprise, uint _amount) public {\n        require(_isValideEntreprise(_entreprise));\n        require(users[msg.sender].invest >= _amount);\n\n        entreprises[_entreprise].balance += _amount;\n        users[msg.sender].invest -= _amount;\n        users[msg.sender].discount += _amount * ratio;\n    }\n\n    function fundProjet(address _projet, uint _amount) public {\n        require(_isValideProjet(_projet));\n        require(users[msg.sender].invest >= _amount);\n\n        projets[_projet].balance += _amount;\n        users[msg.sender].invest -= _amount;\n        users[msg.sender].discount += _amount * ratio;\n    }\n\n    function createEntreprise(address _entreprise) public onlyOwner {\n        require(!entreprises[_entreprise].exist);\n        entreprises[_entreprise].exist = true;\n        entreprises[_entreprise].balance = 0;\n        entreprises[_entreprise].total = 0;\n    }\n\n    function createProjet(address _projet) public onlyOwner {\n        require(!projets[_projet].exist);\n        projets[_projet].exist = true;\n        projets[_projet].balance = 0;\n        projets[_projet].total = 0;\n    }\n\n    function fundUser(address _user, uint _amount) public onlyOwner {\n        users[_user].invest += _amount;\n    }\n\n    function burnCoinEntreprise(address _entreprise, uint _amount) public onlyOwner {\n        require(entreprises[_entreprise].balance >= _amount);\n        entreprises[_entreprise].balance -= _amount;\n        entreprises[_entreprise].total += _amount;\n    }\n\n    function burnCoinProjet(address _projet, uint _amount) public onlyOwner {\n        require(projets[_projet].balance >= _amount);\n        projets[_projet].balance -= _amount;\n        projets[_projet].total += _amount;\n    }\n\n    // Discount\n    function burnCoinUser(uint _amount) public {\n        require(users[msg.sender].discount >= _amount);\n        users[msg.sender].discount -= _amount;\n        Discount(msg.sender, _amount);\n    }\n\n    // to do\n    // X    convertir en structure (champ discount pour user)\n    // X    créer entreprise / projet\n    // X    donner token client\n    // X    voir la partie discount\n    // X    retrait token entreprises / projets by owner\n    // X         function pour changer les tokens\n    // -> reçus pour les entreprises / projets ?\n    // traçabilité des payements\n\n    // geter\n\n    function Owner() public view returns (address) {\n        return(owner);\n    }\n}\n",
  "sourcePath": "/mnt/c/Programmation/hackathon-casino/ethereum/contracts/Casino.sol",
  "compiler": {
    "name": "solc",
    "version": "0.4.19+commit.c4cbbb05.Emscripten.clang"
  },
  "schemaVersion": "1.0.1",
  "updatedAt": "2018-02-17T16:40:25.451Z"
}