{
  "contractName": "Entreprise",
  "abi": [
    {
      "constant": false,
      "inputs": [
        {
          "name": "amount",
          "type": "uint256"
        }
      ],
      "name": "funds",
      "outputs": [],
      "payable": false,
      "stateMutability": "nonpayable",
      "type": "function"
    },
    {
      "constant": true,
      "inputs": [],
      "name": "balance",
      "outputs": [
        {
          "name": "",
          "type": "uint256"
        }
      ],
      "payable": false,
      "stateMutability": "view",
      "type": "function"
    },
    {
      "inputs": [],
      "payable": false,
      "stateMutability": "nonpayable",
      "type": "constructor"
    }
  ],
  "bytecode": "0x6060604052341561000f57600080fd5b336000806101000a81548173ffffffffffffffffffffffffffffffffffffffff021916908373ffffffffffffffffffffffffffffffffffffffff16021790555060d98061005d6000396000f3006060604052600436106049576000357c0100000000000000000000000000000000000000000000000000000000900463ffffffff1680637b8e889514604e578063b69ef8a814606e575b600080fd5b3415605857600080fd5b606c60048080359060200190919050506094565b005b3415607857600080fd5b607e60a7565b6040518082815260200191505060405180910390f35b8060016000828254019250508190555050565b600154815600a165627a7a723058206a1a5506d4ea49f8df93609643f3976401737722248095342bc61ce313bcd98a0029",
  "source": "pragma solidity ^0.4.8;\r\n\r\ncontract Entreprise {\r\n    address owner;\r\n\r\n    uint public balance;\r\n\r\n\r\n    function Entreprise() public {\r\n        owner = msg.sender;\r\n    }\r\n\r\n    function funds(uint amount) public {\r\n        balance += amount;\r\n    }\r\n}\r\n",
  "sourcePath": "C:\\Users\\tclairet\\Documents\\hackathon\\contracts\\Entreprise.sol",
  "compiler": {
    "name": "solc",
    "version": "0.4.18+commit.9cf6e910.Emscripten.clang"
  },
  "schemaVersion": "1.0.1",
  "updatedAt": "2018-02-17T10:41:32.277Z"
}