{
  "contractName": "User",
  "abi": [
    {
      "constant": true,
      "inputs": [],
      "name": "discount",
      "outputs": [
        {
          "name": "",
          "type": "uint256"
        }
      ],
      "payable": false,
      "stateMutability": "view",
      "type": "function"
    },
    {
      "constant": true,
      "inputs": [],
      "name": "invest",
      "outputs": [
        {
          "name": "",
          "type": "uint256"
        }
      ],
      "payable": false,
      "stateMutability": "view",
      "type": "function"
    },
    {
      "inputs": [],
      "payable": false,
      "stateMutability": "nonpayable",
      "type": "constructor"
    }
  ],
  "bytecode": "0x6060604052341561000f57600080fd5b336000806101000a81548173ffffffffffffffffffffffffffffffffffffffff021916908373ffffffffffffffffffffffffffffffffffffffff16021790555060d28061005d6000396000f3006060604052600436106049576000357c0100000000000000000000000000000000000000000000000000000000900463ffffffff1680636b6f4a9d14604e578063e8b5e51f146074575b600080fd5b3415605857600080fd5b605e609a565b6040518082815260200191505060405180910390f35b3415607e57600080fd5b608460a0565b6040518082815260200191505060405180910390f35b60025481565b600154815600a165627a7a7230582016bf9f322c1a00bb85915f051857484e961085f4277573e7a13c2fe878e8be610029",
  "source": "pragma solidity ^0.4.8;\r\n\r\ncontract User {\r\n    address owner;\r\n\r\n    uint public invest;\r\n    uint public discount;\r\n\r\n    function User() public {\r\n        owner = msg.sender;\r\n    }\r\n}\r\n",
  "sourcePath": "C:\\Users\\tclairet\\Documents\\hackathon\\contracts\\User.sol",
  "compiler": {
    "name": "solc",
    "version": "0.4.18+commit.9cf6e910.Emscripten.clang"
  },
  "schemaVersion": "1.0.1",
  "updatedAt": "2018-02-17T10:41:32.280Z"
}